:060000000A128A11E82F2C
:1007E800F000831203130C1EF52B70089900080003
:1007F80064008001840A0406031900340406FD2BF2
:1008080083120313981C0A2C181218168C1E0A2C13
:100818001A08080000300A128A117D240A128A1167
:1008280001300A128A117D2408005B348934263489
:1008380089343B348934F734883412348934193490
:1008480089347E088A007F08820025240A128A11CA
:100858008000840A04087D0603190034FF0A03197E
:10086800FE0A292C3130F1008930F2000A128A116F
:10087800B5240A128A110A128A1179260A128A11D3
:10088800013A0319492C03100800031408008316C1
:100898000313071387170A309900181518128312C3
:1008A8000313981783160313981683120313181645
:1008B8008316031318138312031318130800F00088
:1008C800701C6A2C8312031308166D2C83120313F1
:1008D8000812F01C712C8816722C8812701D762C48
:1008E8000817772C0813F01D7B2C8817080088132D
:1008F8000800F30083120313081173080A128A11FF
:1009080063240A128A118312031388151A30F2001D
:10091800F830F100F10B8E2CF20B8E2C00008312B4
:10092800031388110800F400E230F1008830F20067
:100938000A128A11B5240A128A117408303E0A1262
:100948008A11F4230A128A112E30F1008930F2003C
:100958000A128A11B5240A128A110A128A117926F2
:100968000800720883120313FF00710884000A123A
:100978008A1500200A128A11003A03190800720821
:1009880083120313FF00710884000A128A150020DD
:100998000A128A110A128A11F4230A128A110130E2
:1009A800F1070318F20AB52CD730F1008830F200AD
:1009B8000A128A11B5240A128A117408F1007508FE
:1009C800F2000A128A11B5240A128A114430F10081
:1009D8008930F2000A128A11B5240A128A1176089F
:1009E800F1007708F2000A128A11B5240A128A1156
:1009F8000A30F1008930F2000A128A11B5240A126D
:100A08008A110A128A117926080083120313A00199
:100A1800A10120087907FC007A08FB000318FB0AEB
:100A2800A01BFB037B08FD007D0883120313FF0056
:100A38007C0884000A128A1500200A128A11003ADA
:100A48000319080020087907FC007A08FB0003183E
:100A5800FB0AA01BFB037B08FD007D088312031320
:100A6800FF007C0884000A128A1500200A128A11E5
:100A78000A128A1194250A128A110130831203136B
:100A8800A0070318A10A0030A1070D2DF70077036E
:100A9800031D6F2D74087F3EF5007508FA007A086B
:100AA800F50004300310F50CFF3E031D562D7508A4
:100AB800F6007608F8007A080F39F5007508F9008D
:100AC80078080A128A117D240A128A1179080A12F2
:100AD8008A117D24080002307706031D0800740877
:100AE800BF3EF5007508FA007A08F50004300310D7
:100AF800F50CFF3E031D7B2D7508F6007608F800FF
:100B08007A080F39F5007508F90078080A128A1171
:100B18007D240A128A1179080A128A117D24080094
:100B2800F40074080F39F1007108F2007408F03904
:100B3800F1007108F3008312031308157308F1001C
:100B480004300310F10CFF3E031DA52D71080A1295
:100B58008A1163240A128A11831203138815333009
:100B6800F5008230F6007608803AFF0080307F0278
:100B7800031DC02D013075020318D42D0000FF306D
:100B8800F5070318F60AFF30F6077608803AFF00E3
:100B980080307F02031DD22D01307502031CC22D47
:100BA80083120313881172080A128A1163240A1225
:100BB8008A118312031388153330F7008230F80046
:100BC8007808803AFF0080307F02031DED2D013048
:100BD80077020318012E0000FF30F7070318F80A00
:100BE800FF30F8077808803AFF0080307F02031D45
:100BF800FF2D01307702031CEF2D83120313881198
:100C0800080000300A128A1163240A128A111C3063
:100C1800F6004130F7007708803AFF0080307F0205
:100C2800031D182E0130760203182C2E0000FF3009
:100C3800F6070318F70AFF30F7077708803AFF002E
:100C480080307F02031D2A2E01307602031C1A2EE3
:100C580003300A128A117D240A128A112130F50004
:100C68007630F400F40B362EF50B362E00000330E8
:100C78000A128A117D240A128A114830F5006C3054
:100C8800F400F40B452EF50B452E000003300A1234
:100C98008A117D240A128A1102300A128A117D24CF
:100CA8000A128A1102300A128A117D240A128A1144
:100CB80008300A128A117D240A128A1100300A1299
:100CC8008A117D240A128A110C300A128A117D2495
:100CD8000A128A1100300A128A117D240A128A1116
:100CE80006300A128A117D2408002C3084008312F1
:100CF8000313390883138000840A3A088000840AA1
:100D08003B088000840A3C088000840A3D08800073
:100D1800840A3E088000203084004A30F00004082D
:100D2800F1000C30F2007008840083130008F3000F
:100D3800F00A7108840073088000F10AF20B972EFC
:100D4800B401B40A340803190D2F0A128A110424B5
:100D58000A128A11F000700883120313B200B50159
:100D6800063035020318A62E3508F0007007203E1D
:100D7800840083130008F100840A0008F200350893
:100D88002C3E840000087107840072080318720A58
:100D9800FF000A128A1500200A128A113206031D62
:100DA800032F0130F00035082C3E840070088313AF
:100DB800800735081C3E840088300318013EFF0078
:100DC8000A128A1500200A128A11F00035082C3EF2
:100DD8008400831300087006031D082F3508223E7F
:100DE800840088300318013EFF000A128A1500208B
:100DF8000A128A11F0007008B300B401082F3508F0
:100E08002C3E8400831380010130F0007008B50780
:100E1800B42E330808008316031388010A128A11B6
:100E280005260A128A110A128A114B240A128A11FB
:100E3800F401F40A01300A128A114A250A128A11A9
:100E48004A30F9008830FA000A128A1109250A1274
:100E58008A11F401F40A02300A128A114A250A1288
:100E68008A112830F9008830FA000A128A110925F7
:100E78000A128A11273083120313B8000D30B70005
:100E88004B30B600B60B462FB70B462FB80B462F84
:100E980000000A128A110E240A128A11F401F40AB7
:100EA80001300A128A114A250A128A118330F90080
:100EB8008830FA000A128A1109250A128A110A12C0
:100EC8008A1136240A128A11031C522FF401F40ADB
:100ED80001300A128A114A250A128A113930F9009A
:100EE8008830FA000A128A1109250A128A11273055
:100EF80083120313B8000D30B7004B30B600B60BA1
:100F0800832FB70B832FB80B832F00000A128A1187
:100F18000E240A128A1102300A128A1197240A1220
:100F28008A11F401F40A01300A128A114A250A12B8
:100F38008A116730F9008830FA000A128A110925E7
:100F48000A128A11273083120313B8000D30B70034
:100F58004B30B600B60BAE2FB70BAE2FB80BAE2F7B
:100F680000000A128A110E240A128A119130F40024
:100F78008830F500ED30F6008830F7000A128A1143
:100F8800D8240A128A11F401F40A01300A128A11CB
:100F98004A250A128A117530F9008830FA000A12B7
:100FA8008A1109250A128A11273083120313B800FF
:100FB8000D30B7004B30B600B60BE02FB70BE02F63
:100FC800B80BE02F0000E72F83135630FD000430E4
:100FD800FE001930FF004A3084000A128A112924C1
:100FE8000A128A11393084004A300A128A11FC2305
:100FF80083010A128A110F2FFF1B0A2883137F18F7
:1010080083170008840A0319FF0A08007F087F393C
:101018008A000408840A0319FF0A82000134003494
:101028000A34003464340034E83403341034273488
:1010380002340534043409340634063401340234E5
:1010480003340434053406344534533450343534C9
:10105800323436343634203477346934743468346E
:1010680020345034493443340034453453345034F4
:10107800203469347334203463346F346E346E34FE
:101088006534633474346534643400344334693407
:1010980072346334753469347434203444346934B4
:1010A80067346534733474340034413454342B3425
:1010B800433449345034533454344134523454341E
:1010C8003D3422340034453453345034203473349E
:1010D80065347434203461347334203441345034EA
:1010E800003441345034203463346F346E34663401
:1010F8006934673475347234653464340034453483
:101108005334503420346E346F347434203466349D
:101118006F3475346E346434003443346934723453
:1011280063347534693474344434693467346534E9
:10113800733474340034413454342B3443344934D4
:101148005034533445344E3444343D3400344134FF
:1011580054342B34433457344C34493446340D34E6
:101168000A340034413454342B3443345734513422
:10117800413450340D340A340034413454342B345F
:10118800433449344634533452340D340A34003429
:10119800413454342B34433457344A344134503472
:1011A8003D3422340034413454342B3443345734DE
:1011B8005334413450343D342234003441345434AF
:1011C8002B34433457344D344F34443445343D3450
:1011D80000343634313439343034303437343134FF
:1011E8003234333400346E346F342034633468342A
:1011F80061346E34673465340034413454342B34EC
:101208005234533454340D340A34003422342C34D8
:1012180035342C3433340D340A3400344C346934C6
:101228006E346B3465346434003455346E346C3445
:1012380069346E346B3400342B34493450344434BC
:101248002C340034723465346134643479340034B5
:101258000D340A340D340A340034413454340D3416
:101268000A3400344D34413443343A34003446347B
:10127800413449344C34003422340D340A340034B7
:1012880022342C3422340034493450343A34003473
:1012980041345434453400345434433450340034E5
:1012A800553444345034003422342C3400344F3410
:0A12B8004B34003425347534003443
:02400E007A3FF7
:00000001FF
